{
    "abi": [
        {
            "inputs": [],
            "stateMutability": "nonpayable",
            "type": "constructor"
        },
        {
            "anonymous": false,
            "inputs": [
                {
                    "indexed": false,
                    "internalType": "uint256",
                    "name": "offerId",
                    "type": "uint256"
                },
                {
                    "indexed": false,
                    "internalType": "string",
                    "name": "actionType",
                    "type": "string"
                },
                {
                    "indexed": false,
                    "internalType": "enum OfferEscrow.Status",
                    "name": "status",
                    "type": "uint8"
                },
                {
                    "indexed": true,
                    "internalType": "address",
                    "name": "executor",
                    "type": "address"
                }
            ],
            "name": "Action",
            "type": "event"
        },
        {
            "inputs": [
                {
                    "internalType": "uint256",
                    "name": "offerId",
                    "type": "uint256"
                }
            ],
            "name": "applyOffer",
            "outputs": [
                {
                    "internalType": "bool",
                    "name": "",
                    "type": "bool"
                }
            ],
            "stateMutability": "nonpayable",
            "type": "function"
        },
        {
            "inputs": [
                {
                    "internalType": "uint256",
                    "name": "offerId",
                    "type": "uint256"
                },
                {
                    "internalType": "address",
                    "name": "worker",
                    "type": "address"
                }
            ],
            "name": "approveWorker",
            "outputs": [
                {
                    "internalType": "bool",
                    "name": "",
                    "type": "bool"
                }
            ],
            "stateMutability": "nonpayable",
            "type": "function"
        },
        {
            "inputs": [
                {
                    "internalType": "uint256",
                    "name": "offerId",
                    "type": "uint256"
                },
                {
                    "internalType": "bool",
                    "name": "provided",
                    "type": "bool"
                }
            ],
            "name": "confirmWork",
            "outputs": [
                {
                    "internalType": "bool",
                    "name": "",
                    "type": "bool"
                }
            ],
            "stateMutability": "nonpayable",
            "type": "function"
        },
        {
            "inputs": [
                {
                    "internalType": "string",
                    "name": "offerName",
                    "type": "string"
                }
            ],
            "name": "createOffer",
            "outputs": [
                {
                    "internalType": "bool",
                    "name": "",
                    "type": "bool"
                }
            ],
            "stateMutability": "payable",
            "type": "function"
        },
        {
            "inputs": [],
            "name": "escrowAcc",
            "outputs": [
                {
                    "internalType": "address",
                    "name": "",
                    "type": "address"
                }
            ],
            "stateMutability": "view",
            "type": "function"
        },
        {
            "inputs": [],
            "name": "escrowBal",
            "outputs": [
                {
                    "internalType": "uint256",
                    "name": "",
                    "type": "uint256"
                }
            ],
            "stateMutability": "view",
            "type": "function"
        },
        {
            "inputs": [
                {
                    "internalType": "uint256",
                    "name": "offerId",
                    "type": "uint256"
                }
            ],
            "name": "getApplicants",
            "outputs": [
                {
                    "internalType": "address[]",
                    "name": "",
                    "type": "address[]"
                }
            ],
            "stateMutability": "view",
            "type": "function"
        },
        {
            "inputs": [
                {
                    "internalType": "uint256",
                    "name": "offerId",
                    "type": "uint256"
                }
            ],
            "name": "getOffer",
            "outputs": [
                {
                    "components": [
                        {
                            "internalType": "uint256",
                            "name": "offerId",
                            "type": "uint256"
                        },
                        {
                            "internalType": "string",
                            "name": "name",
                            "type": "string"
                        },
                        {
                            "internalType": "uint256",
                            "name": "amount",
                            "type": "uint256"
                        },
                        {
                            "internalType": "address",
                            "name": "owner",
                            "type": "address"
                        },
                        {
                            "internalType": "address[]",
                            "name": "applicants",
                            "type": "address[]"
                        },
                        {
                            "internalType": "address",
                            "name": "worker",
                            "type": "address"
                        },
                        {
                            "internalType": "enum OfferEscrow.Status",
                            "name": "status",
                            "type": "uint8"
                        },
                        {
                            "internalType": "bool",
                            "name": "provided",
                            "type": "bool"
                        },
                        {
                            "internalType": "bool",
                            "name": "confirmed",
                            "type": "bool"
                        }
                    ],
                    "internalType": "struct OfferEscrow.OffersStruct",
                    "name": "",
                    "type": "tuple"
                }
            ],
            "stateMutability": "view",
            "type": "function"
        },
        {
            "inputs": [],
            "name": "getOffers",
            "outputs": [
                {
                    "components": [
                        {
                            "internalType": "uint256",
                            "name": "offerId",
                            "type": "uint256"
                        },
                        {
                            "internalType": "string",
                            "name": "name",
                            "type": "string"
                        },
                        {
                            "internalType": "uint256",
                            "name": "amount",
                            "type": "uint256"
                        },
                        {
                            "internalType": "address",
                            "name": "owner",
                            "type": "address"
                        },
                        {
                            "internalType": "address[]",
                            "name": "applicants",
                            "type": "address[]"
                        },
                        {
                            "internalType": "address",
                            "name": "worker",
                            "type": "address"
                        },
                        {
                            "internalType": "enum OfferEscrow.Status",
                            "name": "status",
                            "type": "uint8"
                        },
                        {
                            "internalType": "bool",
                            "name": "provided",
                            "type": "bool"
                        },
                        {
                            "internalType": "bool",
                            "name": "confirmed",
                            "type": "bool"
                        }
                    ],
                    "internalType": "struct OfferEscrow.OffersStruct[]",
                    "name": "props",
                    "type": "tuple[]"
                }
            ],
            "stateMutability": "view",
            "type": "function"
        },
        {
            "inputs": [
                {
                    "internalType": "uint256",
                    "name": "",
                    "type": "uint256"
                }
            ],
            "name": "isAvailable",
            "outputs": [
                {
                    "internalType": "enum OfferEscrow.Available",
                    "name": "",
                    "type": "uint8"
                }
            ],
            "stateMutability": "view",
            "type": "function"
        },
        {
            "inputs": [],
            "name": "myApplications",
            "outputs": [
                {
                    "components": [
                        {
                            "internalType": "uint256",
                            "name": "offerId",
                            "type": "uint256"
                        },
                        {
                            "internalType": "string",
                            "name": "name",
                            "type": "string"
                        },
                        {
                            "internalType": "uint256",
                            "name": "amount",
                            "type": "uint256"
                        },
                        {
                            "internalType": "address",
                            "name": "owner",
                            "type": "address"
                        },
                        {
                            "internalType": "address[]",
                            "name": "applicants",
                            "type": "address[]"
                        },
                        {
                            "internalType": "address",
                            "name": "worker",
                            "type": "address"
                        },
                        {
                            "internalType": "enum OfferEscrow.Status",
                            "name": "status",
                            "type": "uint8"
                        },
                        {
                            "internalType": "bool",
                            "name": "provided",
                            "type": "bool"
                        },
                        {
                            "internalType": "bool",
                            "name": "confirmed",
                            "type": "bool"
                        }
                    ],
                    "internalType": "struct OfferEscrow.OffersStruct[]",
                    "name": "",
                    "type": "tuple[]"
                }
            ],
            "stateMutability": "view",
            "type": "function"
        },
        {
            "inputs": [],
            "name": "myOffers",
            "outputs": [
                {
                    "components": [
                        {
                            "internalType": "uint256",
                            "name": "offerId",
                            "type": "uint256"
                        },
                        {
                            "internalType": "string",
                            "name": "name",
                            "type": "string"
                        },
                        {
                            "internalType": "uint256",
                            "name": "amount",
                            "type": "uint256"
                        },
                        {
                            "internalType": "address",
                            "name": "owner",
                            "type": "address"
                        },
                        {
                            "internalType": "address[]",
                            "name": "applicants",
                            "type": "address[]"
                        },
                        {
                            "internalType": "address",
                            "name": "worker",
                            "type": "address"
                        },
                        {
                            "internalType": "enum OfferEscrow.Status",
                            "name": "status",
                            "type": "uint8"
                        },
                        {
                            "internalType": "bool",
                            "name": "provided",
                            "type": "bool"
                        },
                        {
                            "internalType": "bool",
                            "name": "confirmed",
                            "type": "bool"
                        }
                    ],
                    "internalType": "struct OfferEscrow.OffersStruct[]",
                    "name": "",
                    "type": "tuple[]"
                }
            ],
            "stateMutability": "view",
            "type": "function"
        },
        {
            "inputs": [
                {
                    "internalType": "uint256",
                    "name": "",
                    "type": "uint256"
                }
            ],
            "name": "ownerOf",
            "outputs": [
                {
                    "internalType": "address",
                    "name": "",
                    "type": "address"
                }
            ],
            "stateMutability": "view",
            "type": "function"
        },
        {
            "inputs": [
                {
                    "internalType": "address",
                    "name": "",
                    "type": "address"
                },
                {
                    "internalType": "uint256",
                    "name": "",
                    "type": "uint256"
                }
            ],
            "name": "requested",
            "outputs": [
                {
                    "internalType": "bool",
                    "name": "",
                    "type": "bool"
                }
            ],
            "stateMutability": "view",
            "type": "function"
        },
        {
            "inputs": [],
            "name": "totalConfirmed",
            "outputs": [
                {
                    "internalType": "uint256",
                    "name": "",
                    "type": "uint256"
                }
            ],
            "stateMutability": "view",
            "type": "function"
        },
        {
            "inputs": [],
            "name": "totalOffers",
            "outputs": [
                {
                    "internalType": "uint256",
                    "name": "",
                    "type": "uint256"
                }
            ],
            "stateMutability": "view",
            "type": "function"
        },
        {
            "inputs": [
                {
                    "internalType": "uint256",
                    "name": "offerId",
                    "type": "uint256"
                }
            ],
            "name": "workFinished",
            "outputs": [
                {
                    "internalType": "bool",
                    "name": "",
                    "type": "bool"
                }
            ],
            "stateMutability": "nonpayable",
            "type": "function"
        }
    ],
    "bytecode": {
        "object": "0x608060405234801561001057600080fd5b506001600081815581546001600160a01b03191633179091556002819055600381905560045561204e806100456000396000f3fe6080604052600436106100fe5760003560e01c806366813e7c116100955780639df7aeda116100645780639df7aeda146103175780639ea77be11461032d578063a9fd8ed114610342578063ba42a27614610358578063edc9fb011461036b57600080fd5b806366813e7c1461026f5780636754cc281461028f5780636cf5d86e146102ca57806370870952146102f757600080fd5b80635ddcd19e116100d15780635ddcd19e146101bc5780635f022920146101d15780636352211e1461020157806364f776831461024f57600080fd5b80633a178d99146101035780633ee992ee146101495780634028a0f11461016b5780634579268a1461018f575b600080fd5b34801561010f57600080fd5b5061013361011e366004611876565b600a6020526000908152604090205460ff1681565b60405161014091906118a5565b60405180910390f35b34801561015557600080fd5b5061015e61038b565b6040516101409190611a17565b34801561017757600080fd5b5061018160045481565b604051908152602001610140565b34801561019b57600080fd5b506101af6101aa366004611876565b6105ee565b6040516101409190611a79565b3480156101c857600080fd5b5061015e6107c3565b3480156101dd57600080fd5b506101f16101ec366004611876565b6109dd565b6040519015158152602001610140565b34801561020d57600080fd5b5061023761021c366004611876565b6009602052600090815260409020546001600160a01b031681565b6040516001600160a01b039091168152602001610140565b34801561025b57600080fd5b50600154610237906001600160a01b031681565b34801561027b57600080fd5b506101f161028a366004611a93565b610c7a565b34801561029b57600080fd5b506101f16102aa366004611ae4565b600860209081526000928352604080842090915290825290205460ff1681565b3480156102d657600080fd5b506102ea6102e5366004611876565b610e56565b6040516101409190611b0e565b34801561030357600080fd5b506101f1610312366004611b5b565b610ec5565b34801561032357600080fd5b5061018160025481565b34801561033957600080fd5b5061015e611080565b34801561034e57600080fd5b5061018160035481565b6101f1610366366004611b87565b611291565b34801561037757600080fd5b506101f1610386366004611876565b61156b565b606060035467ffffffffffffffff8111156103a8576103a8611bf9565b6040519080825280602002602001820160405280156103e157816020015b6103ce6117ab565b8152602001906001900390816103c65790505b50905060005b6003548110156105ea5760056000828152602001908152602001600020604051806101200160405290816000820154815260200160018201805461042a90611c0f565b80601f016020809104026020016040519081016040528092919081815260200182805461045690611c0f565b80156104a35780601f10610478576101008083540402835291602001916104a3565b820191906000526020600020905b81548152906001019060200180831161048657829003601f168201915b50505050508152602001600282015481526020016003820160009054906101000a90046001600160a01b03166001600160a01b03166001600160a01b031681526020016004820180548060200260200160405190810160405280929190818152602001828054801561053e57602002820191906000526020600020905b81546001600160a01b03168152600190910190602001808311610520575b505050918352505060058201546001600160a01b0381166020830152604090910190600160a01b900460ff16600481111561057b5761057b61188f565b600481111561058c5761058c61188f565b81526005919091015460ff600160a81b8204811615156020840152600160b01b90910416151560409091015282518390839081106105cc576105cc611c49565b602002602001018190525080806105e290611c75565b9150506103e7565b5090565b6105f66117ab565b60056000838152602001908152602001600020604051806101200160405290816000820154815260200160018201805461062f90611c0f565b80601f016020809104026020016040519081016040528092919081815260200182805461065b90611c0f565b80156106a85780601f1061067d576101008083540402835291602001916106a8565b820191906000526020600020905b81548152906001019060200180831161068b57829003601f168201915b50505050508152602001600282015481526020016003820160009054906101000a90046001600160a01b03166001600160a01b03166001600160a01b031681526020016004820180548060200260200160405190810160405280929190818152602001828054801561074357602002820191906000526020600020905b81546001600160a01b03168152600190910190602001808311610725575b505050918352505060058201546001600160a01b0381166020830152604090910190600160a01b900460ff1660048111156107805761078061188f565b60048111156107915761079161188f565b81526005919091015460ff600160a81b8204811615156020840152600160b01b90910416151560409091015292915050565b336000908152600660209081526040808320805482518185028101850190935280835260609492939192909184015b828210156109d45783829060005260206000209060060201604051806101200160405290816000820154815260200160018201805461083090611c0f565b80601f016020809104026020016040519081016040528092919081815260200182805461085c90611c0f565b80156108a95780601f1061087e576101008083540402835291602001916108a9565b820191906000526020600020905b81548152906001019060200180831161088c57829003601f168201915b50505050508152602001600282015481526020016003820160009054906101000a90046001600160a01b03166001600160a01b03166001600160a01b031681526020016004820180548060200260200160405190810160405280929190818152602001828054801561094457602002820191906000526020600020905b81546001600160a01b03168152600190910190602001808311610926575b505050918352505060058201546001600160a01b0381166020830152604090910190600160a01b900460ff1660048111156109815761098161188f565b60048111156109925761099261188f565b81526005919091015460ff600160a81b820481161515602080850191909152600160b01b909204161515604090920191909152908252600190920191016107f2565b50505050905090565b6000818152600960205260408120546001600160a01b03163303610a545760405162461bcd60e51b8152602060048201526024808201527f4f776e65722063616e6e6f74206170706c7920666f7220686973206f776e204f604482015263333332b960e11b60648201526084015b60405180910390fd5b60016000838152600a602052604090205460ff166001811115610a7957610a7961188f565b14610abc5760405162461bcd60e51b81526020600482015260136024820152724f66666572206e6f7420617661696c61626c6560681b6044820152606401610a4b565b6000828152600560209081526040808320600481018054600181810183559186528486200180546001600160a01b031916339081179091558552600784529184208054808401825590855292909320835460069093020191825582919081810190610b2990840182611cdd565b506002828101549082015560038083015490820180546001600160a01b0319166001600160a01b0390921691909117905560048083018054610b6e928401919061181a565b506005828101805491830180546001600160a01b031981166001600160a01b039094169384178255915460ff600160a01b91829004169391926001600160a81b03191690911790836004811115610bc757610bc761188f565b02179055506005918201805491909201805460ff60a81b198116600160a81b9384900460ff90811615159094029081178355935461ffff60a81b1990911660ff60b01b1990941693909317600160b01b938490049092161515909202179055336000818152600860209081526040808320878452909152808220805460ff1916600117905551600080516020611ff983398151915291610c6991879190611dbe565b60405180910390a250600192915050565b6000828152600960205260408120546001600160a01b03163314610cd65760405162461bcd60e51b81526020600482015260136024820152724f6e6c79206f776e657220616c6c6f7765642160681b6044820152606401610a4b565b60008381526005602081905260409091200154600160a81b900460ff16610d3f5760405162461bcd60e51b815260206004820152601760248201527f576f726b20686173206e6f74206265656e20646f6e65210000000000000000006044820152606401610a4b565b8115610e0757600083815260056020819052604090912090810154600290910154610d73916001600160a01b03169061170c565b5060008381526005602052604081206002908101548154909290610d98908490611df3565b909155505060008381526005602081905260409182902001805462ff00ff60a01b191661400160a21b179055513390600080516020611ff983398151915290610de5908690600490611e06565b60405180910390a260048054906000610dfd83611c75565b9190505550610e4c565b60008381526005602081905260409182902001805460ff60a01b1916600360a01b179055513390600080516020611ff983398151915290610c69908690600390611e3b565b5060015b92915050565b600081815260056020908152604091829020600401805483518184028101840190945280845260609392830182828015610eb957602002820191906000526020600020905b81546001600160a01b03168152600190910190602001808311610e9b575b50505050509050919050565b6000828152600960205260408120546001600160a01b03163314610f205760405162461bcd60e51b815260206004820152601260248201527113db9b1e481bdddb995c88185b1b1bddd95960721b6044820152606401610a4b565b60016000848152600a602052604090205460ff166001811115610f4557610f4561188f565b14610f875760405162461bcd60e51b81526020600482015260126024820152714974656d206e6f7420617661696c61626c6560701b6044820152606401610a4b565b6001600160a01b038216600090815260086020908152604080832086845290915290205460ff166110065760405162461bcd60e51b8152602060048201526024808201527f576f726b657220686173206e6f74206170706c69656420666f7220746865206f604482015263333332b960e11b6064820152608401610a4b565b6000838152600a602052604081205460ff1660018111156110295761102961188f565b50506000838152600560208190526040918290200180546001600160a01b0385166001600160a81b031990911617600160a01b179055513390600080516020611ff983398151915290610c69908690600190611e6f565b336000908152600760209081526040808320805482518185028101850190935280835260609492939192909184015b828210156109d4578382906000526020600020906006020160405180610120016040529081600082015481526020016001820180546110ed90611c0f565b80601f016020809104026020016040519081016040528092919081815260200182805461111990611c0f565b80156111665780601f1061113b57610100808354040283529160200191611166565b820191906000526020600020905b81548152906001019060200180831161114957829003601f168201915b50505050508152602001600282015481526020016003820160009054906101000a90046001600160a01b03166001600160a01b03166001600160a01b031681526020016004820180548060200260200160405190810160405280929190818152602001828054801561120157602002820191906000526020600020905b81546001600160a01b031681526001909101906020018083116111e3575b505050918352505060058201546001600160a01b0381166020830152604090910190600160a01b900460ff16600481111561123e5761123e61188f565b600481111561124f5761124f61188f565b81526005919091015460ff600160a81b820481161515602080850191909152600160b01b909204161515604090920191909152908252600190920191016110af565b6000816112ef5760405162461bcd60e51b815260206004820152602660248201527f546865206e616d65206f6620796f7572206f666665722063616e6e6f7420626560448201526520656d70747960d01b6064820152608401610a4b565b6000341161134a5760405162461bcd60e51b815260206004820152602260248201527f4f6666657220416d6f756e742063616e6e6f74206265207a65726f2065746865604482015261727360f01b6064820152608401610a4b565b600380546000918261135b83611c75565b90915550600081815260056020526040902081815590915060018101611382858783611ea3565b503460028201556003810180546001600160a01b0319163390811790915560058201805460ff60a01b1916905560009081526006602081815260408320805460018181018355918552919093208454919092029091019081558291818101906113ed90840182611cdd565b506002828101549082015560038083015490820180546001600160a01b0319166001600160a01b0390921691909117905560048083018054611432928401919061181a565b506005828101805491830180546001600160a01b031981166001600160a01b039094169384178255915460ff600160a01b91829004169391926001600160a81b0319169091179083600481111561148b5761148b61188f565b02179055506005918201805491909201805460ff600160a81b938490048116151590930260ff60a81b198216811783559354600160b01b90819004909316151590920260ff60b01b1990931661ffff60a81b1990921691909117919091179055600082815260096020908152604080832080546001600160a01b03191633179055600a9091528120805460ff1916600117905560028054349290611530908490611f63565b90915550506040513390600080516020611ff983398151915290611558908590600090611f76565b60405180910390a2506001949350505050565b6000818152600560208190526040822001546001600160a01b031633146115e25760405162461bcd60e51b815260206004820152602560248201527f546865206f6666657220686173206e6f74206265656e206177617264656420746044820152646f20796f7560d81b6064820152608401610a4b565b60008281526005602081905260409091200154600160a81b900460ff161561164c5760405162461bcd60e51b815260206004820152601e60248201527f576f726b2068617320616c7265616479206265656e2070726f766964656400006044820152606401610a4b565b60008281526005602081905260409091200154600160b01b900460ff16156116b65760405162461bcd60e51b815260206004820152601f60248201527f576f726b2068617320616c7265616479206265656e20636f6e6669726d6564006044820152606401610a4b565b60008281526005602081905260409182902001805461ffff60a01b1916608160a11b179055513390600080516020611ff9833981519152906116fc908590600290611faf565b60405180910390a2506001919050565b600080836001600160a01b03168360405160006040518083038185875af1925050503d806000811461175a576040519150601f19603f3d011682016040523d82523d6000602084013e61175f565b606091505b50509050806117a15760405162461bcd60e51b815260206004820152600e60248201526d14185e5b595b9d0819985a5b195960921b6044820152606401610a4b565b5060019392505050565b60405180610120016040528060008152602001606081526020016000815260200160006001600160a01b031681526020016060815260200160006001600160a01b03168152602001600060048111156118065761180661188f565b815260006020820181905260409091015290565b82805482825590600052602060002090810192821561185a5760005260206000209182015b8281111561185a57825482559160010191906001019061183f565b506105ea9291505b808211156105ea5760008155600101611862565b60006020828403121561188857600080fd5b5035919050565b634e487b7160e01b600052602160045260246000fd5b60208101600283106118b9576118b961188f565b91905290565b6000815180845260005b818110156118e5576020818501810151868301820152016118c9565b506000602082860101526020601f19601f83011685010191505092915050565b600081518084526020808501945080840160005b8381101561193e5781516001600160a01b031687529582019590820190600101611919565b509495945050505050565b600581106119595761195961188f565b9052565b600061012082518452602083015181602086015261197d828601826118bf565b9150506040830151604085015260608301516119a460608601826001600160a01b03169052565b50608083015184820360808601526119bc8282611905565b91505060a08301516119d960a08601826001600160a01b03169052565b5060c08301516119ec60c0860182611949565b5060e0830151611a0060e086018215159052565b506101009283015115159390920192909252919050565b6000602080830181845280855180835260408601915060408160051b870101925083870160005b82811015611a6c57603f19888603018452611a5a85835161195d565b94509285019290850190600101611a3e565b5092979650505050505050565b602081526000611a8c602083018461195d565b9392505050565b60008060408385031215611aa657600080fd5b8235915060208301358015158114611abd57600080fd5b809150509250929050565b80356001600160a01b0381168114611adf57600080fd5b919050565b60008060408385031215611af757600080fd5b611b0083611ac8565b946020939093013593505050565b6020808252825182820181905260009190848201906040850190845b81811015611b4f5783516001600160a01b031683529284019291840191600101611b2a565b50909695505050505050565b60008060408385031215611b6e57600080fd5b82359150611b7e60208401611ac8565b90509250929050565b60008060208385031215611b9a57600080fd5b823567ffffffffffffffff80821115611bb257600080fd5b818501915085601f830112611bc657600080fd5b813581811115611bd557600080fd5b866020828501011115611be757600080fd5b60209290920196919550909350505050565b634e487b7160e01b600052604160045260246000fd5b600181811c90821680611c2357607f821691505b602082108103611c4357634e487b7160e01b600052602260045260246000fd5b50919050565b634e487b7160e01b600052603260045260246000fd5b634e487b7160e01b600052601160045260246000fd5b600060018201611c8757611c87611c5f565b5060010190565b601f821115611cd857600081815260208120601f850160051c81016020861015611cb55750805b601f850160051c820191505b81811015611cd457828155600101611cc1565b5050505b505050565b818103611ce8575050565b611cf28254611c0f565b67ffffffffffffffff811115611d0a57611d0a611bf9565b611d1e81611d188454611c0f565b84611c8e565b6000601f821160018114611d525760008315611d3a5750848201545b600019600385901b1c1916600184901b178455611db7565b600085815260209020601f19841690600086815260209020845b83811015611d8c5782860154825560019586019590910190602001611d6c565b5085831015611daa5781850154600019600388901b60f8161c191681555b50505060018360011b0184555b5050505050565b82815260606020820181905260099082015268149154555154d5115160ba1b608082015260a08101611a8c6040830184611949565b81810381811115610e5057610e50611c5f565b8281526060602082018190526009908201526810d3d391925493515160ba1b608082015260a08101611a8c6040830184611949565b82815260606020820181905260089082015267111254d41555115160c21b608082015260a08101611a8c6040830184611949565b828152606060208201819052600890820152671054141493d5915160c21b608082015260a08101611a8c6040830184611949565b67ffffffffffffffff831115611ebb57611ebb611bf9565b611ecf83611ec98354611c0f565b83611c8e565b6000601f841160018114611f035760008515611eeb5750838201355b600019600387901b1c1916600186901b178355611db7565b600083815260209020601f19861690835b82811015611f345786850135825560209485019460019092019101611f14565b5086821015611f515760001960f88860031b161c19848701351681555b505060018560011b0183555050505050565b80820180821115610e5057610e50611c5f565b828152606060208201819052600d908201526c13d19191548810d49150551151609a1b608082015260a08101611a8c6040830184611949565b8281526060602082018190526017908201527f574f524b20484153204245454e20434f4d504c45544544000000000000000000608082015260a08101611a8c604083018461194956fe23ad0062ad47da0f27f5c07751751e4b60afc16bf6fe03a24266a01ec4897931a264697066735822122006fd219412f6e25c105e83aaf85210b33ccf03545cd34fa9eb9f154522723deb64736f6c63430008110033",
        "linkReferences": {}
    },
    "methodIdentifiers": {
        "applyOffer(uint256)": "5f022920",
        "approveWorker(uint256,address)": "70870952",
        "confirmWork(uint256,bool)": "66813e7c",
        "createOffer(string)": "ba42a276",
        "escrowAcc()": "64f77683",
        "escrowBal()": "9df7aeda",
        "getApplicants(uint256)": "6cf5d86e",
        "getOffer(uint256)": "4579268a",
        "getOffers()": "3ee992ee",
        "isAvailable(uint256)": "3a178d99",
        "myApplications()": "9ea77be1",
        "myOffers()": "5ddcd19e",
        "ownerOf(uint256)": "6352211e",
        "requested(address,uint256)": "6754cc28",
        "totalConfirmed()": "4028a0f1",
        "totalOffers()": "a9fd8ed1",
        "workFinished(uint256)": "edc9fb01"
    },
    "id": 2
}